:100000000C9434000C9451000C9451000C94510049
:100010000C9451000C9451000C9451000C9451001C
:100020000C9451000C9451000C9451000C9451000C
:100030000C9451000C9451000C9451000C945100FC
:100040000C9451000C9451000C9451000C945100EC
:100050000C9451000C9451000C9451000C945100DC
:100060000C9451000C94510011241FBECFEFD8E026
:10007000DEBFCDBF11E0A0E0B1E0EAE4FAE002C0EB
:1000800005900D92AE37B107D9F721E0AEE7B1E0A8
:1000900001C01D92A038B207E1F70E94F6000C944F
:1000A00023050C940000ECE7F0E09081907F8F70C6
:1000B000892B8083EAE7F0E08081806480838091EF
:1000C0007A0086FDFCCF80917800909179000895A8
:1000D00080E480937C0086E880937A0080E00E9430
:1000E000530008959BB19370282F2C7F922B9BB9BE
:1000F00095B19C7F8370892B85B9089585B1846003
:1001000085B985E08A95F1F7000085B18B7F85B9C7
:1001100087EC90E00197F1F700C00000089595B1D9
:100120009F7E95B995B1977F95B90E9472000E9404
:100130007E00089584B18C6184B98AB18C6F8AB9CC
:1001400084B1836084B985B1837E85B92FEF80E760
:1001500092E0215080409040E1F700C0000088E329
:100160000E948F008FE19EE40197F1F700C000002C
:1001700088E30E948F009FEF23EC89E0915020409C
:100180008040E1F700C000008CE00E948F0081E019
:100190000E948F008FE39FE10197F1F700C00000FC
:1001A00086E00E948F00089595B1906195B995B150
:1001B000977F95B90E9472000E947E000895CF93A8
:1001C000DF93EC0103C00E94D40021968881811145
:1001D000FACFDF91CF910895811103C080E8860F97
:1001E00002C080EC860F0E948F000895CF93DF93AA
:1001F000CDB7DEB760970FB6F894DEBF0FBECDBFA8
:100200000E949A000E94680087E690E00E94E20146
:1002100060E080E00E94EC0080E091E00E94DF005E
:1002200060E081E00E94EC008BE091E00E94DF0042
:100230002FEF83ED90E3215080409040E1F700C024
:10024000000081E00E948F008FE39FE10197F1F7AA
:1002500000C0000081E00E9453009C01A8E8B3E1C7
:100260000E942A026B017C012FEF33E040E050E056
:100270000E94080249015A01C701B60128E13CE980
:100280004FE050E00E940802E22EC501B40128EEC2
:1002900033E040E050E00E9408022AE030E040E015
:1002A00050E00E940802C22E64E081E00E94EC004F
:1002B0001F92CF921F92EF928DE191E09F938F93C7
:1002C0008E010F5F1F4F1F930F930E943902C801C9
:1002D0000E94DF0085E00E945300F82ED92E6BE0CB
:1002E00081E00E94EC00DF92FF920F2EFAE2AF2E27
:1002F000F1E0BF2EF02DBF92AF921F930F930E949B
:100300003902C8010E94DF0060E181E00E94EC0038
:1003100080917E0190917F019F938F93BF92AF92C6
:100320001F930F930E943902C8010E94DF00809141
:100330007E0190917F019F938F93DF92FF921F9296
:10034000CF921F92EF928EE291E09F938F931F9333
:100350000F930E9439020FB6F894DEBF0FBECDBFD7
:10036000C8010E94FB018091C00088230CF50E9407
:10037000F4018B3271F480917E0190917F0101969E
:1003800090937F0180937E018DE491E00E94FB01B8
:100390000FC08D3269F480917E0190917F010197A9
:1003A00090937F0180937E0185E691E00E94FB019E
:1003B0009FEF23EC89E0915020408040E1F700C09E
:1003C000000048CF9093C5008093C40088E18093DB
:1003D000C10086E08093C20008959091C00095FF0F
:1003E000FCCF8093C60008958091C0008823E4F775
:1003F0008091C6000895CF93DF93EC0103C00E9463
:10040000ED01219688818111FACFDF91CF91089576
:10041000A1E21A2EAA1BBB1BFD010DC0AA1FBB1F08
:10042000EE1FFF1FA217B307E407F50720F0A21B7A
:10043000B30BE40BF50B661F771F881F991F1A94E7
:1004400069F760957095809590959B01AC01BD0111
:10045000CF010895A29FB001B39FC001A39F700D6B
:10046000811D1124911DB29F700D811D1124911DBC
:100470000895AEE0B0E0EFE3F2E00C94FA040D89E9
:100480001E8986E08C831A8309838FEF9FE79E8302
:100490008D83AE01475E5F4F6F89788DCE010196E7
:1004A0000E945B02EF81F885E00FF11F10822E960B
:1004B000E4E00C941605ABE0B0E0E1E6F2E00C9469
:1004C000EC046C017B018A01FC0117821682838196
:1004D00081FFCCC1CE0101963C01F6019381F70169
:1004E00093FD859193FF81917F01882309F4BAC11F
:1004F000853239F493FD859193FF81917F01853297
:1005000029F4B60190E00E945204E7CF912C212CEF
:10051000312CFFE1F315D8F08B3279F038F48032CA
:1005200079F08332A1F4232D20611DC08D3261F05A
:10053000803369F4232D216016C0832D8260382E0C
:10054000E32DE4603E2E2AC0F32DF8601DC037FC79
:100550002DC020ED280F2A3040F08E32B9F436FC41
:1005600081C1232D2064322E19C036FE06C08AE0D8
:10057000989E200D1124922E11C0EAE02E9E200D8F
:100580001124222EF32DF0623F2E08C08C3621F468
:10059000832D8068382E02C0883641F4F70193FD20
:1005A000859193FF81917F018111B3CF982F9F7D1A
:1005B0009554933028F40C5F1F4F9FE399830DC02F
:1005C000833631F0833771F0833509F059C021C08B
:1005D000F801808189830E5F1F4F88248394912CBA
:1005E000530113C02801F2E04F0E511CF801A08006
:1005F000B18036FE03C0692D70E002C06FEF7FEF5F
:10060000C5010E9447044C018201F32DFF773F2E64
:1006100016C0280122E0420E511CF801A080B180D2
:1006200036FE03C0692D70E002C06FEF7FEFC50199
:100630000E943C044C01F32DF0683F2E820133FCF4
:100640001BC0822D90E088169906B0F4B60180E2B6
:1006500090E00E9452042A94F4CFF50137FC859172
:1006600037FE81915F01B60190E00E945204211093
:100670002A9421E0821A91088114910471F7E8C04C
:10068000843611F0893641F5F80137FE07C06081E4
:100690007181828193810C5F1F4F08C060817181DD
:1006A000072E000C880B990B0E5F1F4FF32DFF7662
:1006B0003F2E97FF09C090958095709561957F4F6B
:1006C0008F4F9F4FF0683F2E2AE030E0A3010E9439
:1006D0008E04882E861845C0853731F4232D2F7E51
:1006E000B22E2AE030E025C0932D997FB92E8F36A7
:1006F000C1F018F4883579F0B5C0803719F0883723
:1007000021F0B0C0E92FE061BE2EB4FE0DC0FB2D7C
:10071000F460BF2E09C034FE0AC0292F2660B22E15
:1007200006C028E030E005C020E130E002C020E152
:1007300032E0F801B7FE07C0608171818281938148
:100740000C5F1F4F06C06081718180E090E00E5FFA
:100750001F4FA3010E948E04882E8618FB2DFF7761
:100760003F2E36FE0DC0232D2E7FA22E891458F465
:1007700034FE0BC032FC09C0832D8E7EA82E05C02E
:10078000B82CA32C03C0B82C01C0B92CA4FE0FC0F8
:10079000FE01E80DF11D8081803321F49A2D997EB0
:1007A000A92E09C0A2FE06C0B394B39404C08A2D3A
:1007B000867809F0B394A3FC11C0A0FE06C0B21461
:1007C00088F4280C922C9B180EC0B21460F4B60169
:1007D00080E290E00E945204B394F7CFB21418F470
:1007E0002B1802C0982C212CA4FE10C0B60180E367
:1007F00090E00E945204A2FE17C0A1FC03C088E74B
:1008000090E002C088E590E0B6010CC08A2D8678A1
:1008100059F0A1FE02C08BE201C080E2A7FC8DE28C
:10082000B60190E00E945204891438F4B60180E3C6
:1008300090E00E9452049A94F7CF8A94F301E80D55
:10084000F11D8081B60190E00E9452048110F5CF25
:10085000222009F442CEB60180E290E00E945204C8
:100860002A94F6CFF6018681978102C08FEF9FEF21
:100870002B96E2E10C940805FC0105906150704054
:100880000110D8F7809590958E0F9F1F0895FC0159
:100890006150704001900110D8F7809590958E0FAF
:1008A0009F1F08950F931F93CF93DF93FB01238125
:1008B00021FD03C08FEF9FEF2CC022FF16C04681A1
:1008C0005781248135814217530744F4A081B181B7
:1008D0009D012F5F3F4F318320838C932681378189
:1008E0002F5F3F4F3783268314C08B01EC01FB0140
:1008F0000084F185E02D0995892BE1F6D801169643
:100900008D919C911797019617969C938E931697AD
:10091000CE01DF91CF911F910F910895FA01AA277F
:10092000283051F1203181F1E8946F936E7F6E5F32
:100930007F4F8F4F9F4FAF4FB1E03ED0B4E03CD0E0
:10094000670F781F891F9A1FA11D680F791F8A1FC3
:10095000911DA11D6A0F711D811D911DA11D20D02A
:1009600009F468943F912AE0269F11243019305DE4
:100970003193DEF6CF010895462F4770405D4193D5
:10098000B3E00FD0C9F7F6CF462F4F70405D4A3322
:1009900018F0495D31FD4052419302D0A9F7EACFEA
:1009A000B4E0A6959795879577956795BA95C9F719
:1009B00000976105710508959B01AC010A2E06940C
:1009C0005795479537952795BA95C9F7620F731FC5
:1009D000841F951FA01D08952F923F924F925F9202
:1009E0006F927F928F929F92AF92BF92CF92DF923F
:1009F000EF92FF920F931F93CF93DF93CDB7DEB7A4
:100A0000CA1BDB0B0FB6F894DEBF0FBECDBF099437
:100A10002A88398848885F846E847D848C849B848E
:100A2000AA84B984C884DF80EE80FD800C811B819C
:100A3000AA81B981CE0FD11D0FB6F894DEBF0FBECB
:0A0A4000CDBFED010895F894FFCF3B
:100A4A004249454E56454E49444F0053313A2020BB
:100A5A00202053323A2020202053333A0025642E96
:100A6A00253032642056202020002534640053317A
:100A7A003A2025642E25303264562C2053323A20EF
:100A8A0025642C2053333A2025640D0A00436F6EE7
:100A9A007461646F7220696E6372656D656E7461EC
:100AAA00646F0D0A00436F6E7461646F722064652F
:0E0ABA006372656D656E7461646F0D0A0000F5
:00000001FF
