:100000000C9434000C9449000C9449000C94490061
:100010000C9449000C9449000C9449000C9449003C
:100020000C9449000C9449000C9449000C9449002C
:100030000C9449000C9449000C9449000C9449001C
:100040000C9449000C9449000C9449000C9449000C
:100050000C9449000C9449000C9449000C944900FC
:100060000C9449000C94490011241FBECFEFD8E036
:10007000DEBFCDBF11E0A0E0B1E0ECE1F3E002C0F3
:1000800005900D92A031B107D9F70E9440010C9460
:100090008C010C9400008770ECE7F0E09081907F79
:1000A000892B808385E38A95F1F70000EAE7F0E089
:1000B00080818064808380917A0086FDFCCF80916E
:1000C000780090917900089580E480937C0087E81F
:1000D00080937A0080E00E944B00089585B1826091
:1000E00085B985E08A95F1F7000085B18D7F85B9E6
:1000F0008FE39FE10197F1F700C00000089595B1EB
:100100009E7F95B98BB90E946E00089595B191605C
:1001100095B98BB90E946E00089584B1816084B94D
:1001200084B1826084B98FEF8AB92FEF80E792E0C3
:10013000215080409040E1F700C0000088E30E9419
:100140007F008CE00E947F0086E00E947F0081E0BB
:100150000E947F008FE39FE10197F1F700C000004C
:100160000895611102C0805801C080540E947F0030
:100170000895CF93DF93EC0103C021960E9486007F
:1001800088818111FACFDF91CF910895CF92DF92CC
:10019000EF92FF920F931F93CF93DF939C01A8E8F8
:1001A000B3E10E947D012FEF33E040E050E00E9478
:1001B0005B0169017A0161E080E00E94B100860183
:1001C0001695079516950795169507959801A5EC30
:1001D000B0E20E947D01EC01D295C295CF70CD278F
:1001E000DF70CD278C2F805D0E9486008EE20E94FA
:1001F000860028EE33E0C29FC001C39F900DD29FBE
:10020000900D11249601281B390B369527953695AC
:100210002795ABE7B4E10E947D0196958795805DB7
:100220000E94860096013695279536952795ABE76F
:10023000B4E10E947D019C013695279544E6429FDA
:10024000C001439F900D11249601281B390BADEC82
:10025000BCEC0E947D01969587959695879596951D
:100260008795805D0E94860086E50E948600DF916A
:10027000CF911F910F91FF90EF90DF90CF90089555
:100280000E9464000E948D0060E080E00E94B10046
:1002900080E091E00E94B90080E00E944B000E9443
:1002A000C6002FEF83EC99E0215080409040E1F7A9
:1002B00000C00000F1CFA1E21A2EAA1BBB1BFD015A
:1002C0000DC0AA1FBB1FEE1FFF1FA217B307E40735
:1002D000F50720F0A21BB30BE40BF50B661F771F8D
:1002E000881F991F1A9469F760957095809590956D
:1002F0009B01AC01BD01CF010895A29FB001B39F46
:10030000C001A39F700D811D1124911DB29F700D1E
:0C031000811D1124911D0895F894FFCF69
:10031C00504F5420533120564F4C54414A453A00CB
:00000001FF
