:100000000C9434000C9451000C9451000C94510049
:100010000C9451000C9451000C9451000C9451001C
:100020000C9451000C9451000C9451000C9451000C
:100030000C9451000C9451000C9451000C945100FC
:100040000C9451000C9451000C9451000C945100EC
:100050000C9451000C9451000C9451000C945100DC
:100060000C9451000C94510011241FBECFEFD8E026
:10007000DEBFCDBF11E0A0E0B1E0EAE7FAE002C0E8
:1000800005900D92A438B107D9F721E0A4E8B1E0BA
:1000900001C01D92A638B207E1F70E94F6000C9449
:1000A0003B050C940000ECE7F0E09081907F8F70AE
:1000B000892B8083EAE7F0E08081806480838091EF
:1000C0007A0086FDFCCF80917800909179000895A8
:1000D00080E480937C0086E880937A0080E00E9430
:1000E000530008959BB19370282F2C7F922B9BB9BE
:1000F00095B19C7F8370892B85B9089585B1846003
:1001000085B985E08A95F1F7000085B18B7F85B9C7
:1001100087EC90E00197F1F700C00000089595B1D9
:100120009F7E95B995B1977F95B90E9472000E9404
:100130007E00089584B18C6184B98AB18C6F8AB9CC
:1001400084B1836084B985B1837E85B92FEF80E760
:1001500092E0215080409040E1F700C0000088E329
:100160000E948F008FE19EE40197F1F700C000002C
:1001700088E30E948F009FEF23EC89E0915020409C
:100180008040E1F700C000008CE00E948F0081E019
:100190000E948F008FE39FE10197F1F700C00000FC
:1001A00086E00E948F00089595B1906195B995B150
:1001B000977F95B90E9472000E947E000895CF93A8
:1001C000DF93EC0103C00E94D40021968881811145
:1001D000FACFDF91CF910895811103C080E8860F97
:1001E00002C080EC860F0E948F000895CF93DF93AA
:1001F000CDB7DEB760970FB6F894DEBF0FBECDBFA8
:100200000E949A000E94680087E690E00E94FA012E
:1002100060E080E00E94EC0080E091E00E94DF005E
:1002200060E081E00E94EC008BE091E00E94DF0042
:100230002FEF83ED90E3215080409040E1F700C024
:10024000000081E00E948F008FE39FE10197F1F7AA
:1002500000C0000081E00E9453009C01A8E8B3E1C7
:100260000E9442026B017C012FEF33E040E050E03E
:100270000E94200249015A01C701B60128E13CE968
:100280004FE050E00E942002E22EC501B40128EEAA
:1002900033E040E050E00E9420022AE030E040E0FD
:1002A00050E00E942002C22E61E080E00E94EC003B
:1002B0008DE191E00E94DF0060E081E00E94EC00AF
:1002C0001F92CF921F92EF9281E291E09F938F93C2
:1002D0008E010F5F1F4F1F930F930E945102C801A1
:1002E0000E94DF0067E080E00E94EC008DE291E078
:1002F0000E94DF0085E00E945300F82ED92E65E0B1
:1003000081E00E94EC00DF92FF920F2EF1E3AF2E0E
:10031000F1E0BF2EF02DBF92AF921F930F930E947A
:100320005102C8010E94DF006CE080E00E94EC00F6
:1003300089E191E00E94DF006BE081E00E94EC0027
:1003400080918401909185019F938F93BF92AF928A
:100350001F930F930E945102C8010E94DF008091F9
:100360008401909185019F938F93DF92FF921F925A
:10037000CF921F92EF9285E391E09F938F931F930B
:100380000F930E9451020FB6F894DEBF0FBECDBF8F
:10039000C8010E9413028091C00088230CF50E94BE
:1003A0000C028B3271F48091840190918501019649
:1003B000909385018093840184E591E00E9413026B
:1003C0000FC08D3269F4809184019091850101976D
:1003D00090938501809384018CE691E00E94130242
:1003E0009FEF23EC89E0915020408040E1F700C06E
:1003F000000030CF9093C5008093C40088E18093C3
:10040000C10086E08093C20008959091C00095FFDE
:10041000FCCF8093C60008958091C0008823E4F744
:100420008091C6000895CF93DF93EC0103C00E9432
:100430000502219688818111FACFDF91CF9108952D
:10044000A1E21A2EAA1BBB1BFD010DC0AA1FBB1FD8
:10045000EE1FFF1FA217B307E407F50720F0A21B4A
:10046000B30BE40BF50B661F771F881F991F1A94B7
:1004700069F760957095809590959B01AC01BD01E1
:10048000CF010895A29FB001B39FC001A39F700D3B
:10049000811D1124911DB29F700D811D1124911D8C
:1004A0000895AEE0B0E0E7E5F2E00C9412050D89A6
:1004B0001E8986E08C831A8309838FEF9FE79E83D2
:1004C0008D83AE01475E5F4F6F89788DCE010196B7
:1004D0000E947302EF81F885E00FF11F10822E96C3
:1004E000E4E00C942E05ABE0B0E0E9E7F2E00C9418
:1004F00004056C017B018A01FC011782168283814D
:1005000081FFCCC1CE0101963C01F6019381F70138
:1005100093FD859193FF81917F01882309F4BAC1EE
:10052000853239F493FD859193FF81917F01853266
:1005300029F4B60190E00E946A04E7CF912C212CA7
:10054000312CFFE1F315D8F08B3279F038F480329A
:1005500079F08332A1F4232D20611DC08D3261F02A
:10056000803369F4232D216016C0832D8260382EDC
:10057000E32DE4603E2E2AC0F32DF8601DC037FC49
:100580002DC020ED280F2A3040F08E32B9F436FC11
:1005900081C1232D2064322E19C036FE06C08AE0A8
:1005A000989E200D1124922E11C0EAE02E9E200D5F
:1005B0001124222EF32DF0623F2E08C08C3621F438
:1005C000832D8068382E02C0883641F4F70193FDF0
:1005D000859193FF81917F018111B3CF982F9F7DEA
:1005E0009554933028F40C5F1F4F9FE399830DC0FF
:1005F000833631F0833771F0833509F059C021C05B
:10060000F801808189830E5F1F4F88248394912C89
:10061000530113C02801F2E04F0E511CF801A080D5
:10062000B18036FE03C0692D70E002C06FEF7FEF2E
:10063000C5010E945F044C018201F32DFF773F2E1C
:1006400016C0280122E0420E511CF801A080B180A2
:1006500036FE03C0692D70E002C06FEF7FEFC50169
:100660000E9454044C01F32DF0683F2E820133FCAC
:100670001BC0822D90E088169906B0F4B60180E286
:1006800090E00E946A042A94F4CFF50137FC85912A
:1006900037FE81915F01B60190E00E946A0421104B
:1006A0002A9421E0821A91088114910471F7E8C01C
:1006B000843611F0893641F5F80137FE07C06081B4
:1006C0007181828193810C5F1F4F08C060817181AD
:1006D000072E000C880B990B0E5F1F4FF32DFF7632
:1006E0003F2E97FF09C090958095709561957F4F3B
:1006F0008F4F9F4FF0683F2E2AE030E0A3010E9409
:10070000A604882E861845C0853731F4232D2F7E08
:10071000B22E2AE030E025C0932D997FB92E8F3676
:10072000C1F018F4883579F0B5C0803719F08837F2
:1007300021F0B0C0E92FE061BE2EB4FE0DC0FB2D4C
:10074000F460BF2E09C034FE0AC0292F2660B22EE5
:1007500006C028E030E005C020E130E002C020E122
:1007600032E0F801B7FE07C0608171818281938118
:100770000C5F1F4F06C06081718180E090E00E5FCA
:100780001F4FA3010E94A604882E8618FB2DFF7719
:100790003F2E36FE0DC0232D2E7FA22E891458F435
:1007A00034FE0BC032FC09C0832D8E7EA82E05C0FE
:1007B000B82CA32C03C0B82C01C0B92CA4FE0FC0C8
:1007C000FE01E80DF11D8081803321F49A2D997E80
:1007D000A92E09C0A2FE06C0B394B39404C08A2D0A
:1007E000867809F0B394A3FC11C0A0FE06C0B21431
:1007F00088F4280C922C9B180EC0B21460F4B60139
:1008000080E290E00E946A04B394F7CFB21418F427
:100810002B1802C0982C212CA4FE10C0B60180E336
:1008200090E00E946A04A2FE17C0A1FC03C088E702
:1008300090E002C088E590E0B6010CC08A2D867871
:1008400059F0A1FE02C08BE201C080E2A7FC8DE25C
:10085000B60190E00E946A04891438F4B60180E37E
:1008600090E00E946A049A94F7CF8A94F301E80D0D
:10087000F11D8081B60190E00E946A048110F5CFDD
:10088000222009F442CEB60180E290E00E946A0480
:100890002A94F6CFF6018681978102C08FEF9FEFF1
:1008A0002B96E2E10C942005FC010590615070400C
:1008B0000110D8F7809590958E0F9F1F0895FC0129
:1008C0006150704001900110D8F7809590958E0F7F
:1008D0009F1F08950F931F93CF93DF93FB012381F5
:1008E00021FD03C08FEF9FEF2CC022FF16C0468171
:1008F0005781248135814217530744F4A081B18187
:100900009D012F5F3F4F318320838C932681378158
:100910002F5F3F4F3783268314C08B01EC01FB010F
:100920000084F185E02D0995892BE1F6D801169612
:100930008D919C911797019617969C938E9316977D
:10094000CE01DF91CF911F910F910895FA01AA274F
:10095000283051F1203181F1E8946F936E7F6E5F02
:100960007F4F8F4F9F4FAF4FB1E03ED0B4E03CD0B0
:10097000670F781F891F9A1FA11D680F791F8A1F93
:10098000911DA11D6A0F711D811D911DA11D20D0FA
:1009900009F468943F912AE0269F11243019305DB4
:1009A0003193DEF6CF010895462F4770405D4193A5
:1009B000B3E00FD0C9F7F6CF462F4F70405D4A33F2
:1009C00018F0495D31FD4052419302D0A9F7EACFBA
:1009D000B4E0A6959795879577956795BA95C9F7E9
:1009E00000976105710508959B01AC010A2E0694DC
:1009F0005795479537952795BA95C9F7620F731F95
:100A0000841F951FA01D08952F923F924F925F92D1
:100A10006F927F928F929F92AF92BF92CF92DF920E
:100A2000EF92FF920F931F93CF93DF93CDB7DEB773
:100A3000CA1BDB0B0FB6F894DEBF0FBECDBF099407
:100A40002A88398848885F846E847D848C849B845E
:100A5000AA84B984C884DF80EE80FD800C811B816C
:100A6000AA81B981CE0FD11D0FB6F894DEBF0FBE9B
:0A0A7000CDBFED010895F894FFCF0B
:100A7A004249454E56454E49444F0053313A20208B
:100A8A00202053323A2020202053333A0053313A5F
:100A9A000025642E25303264562020200053323A35
:100AAA00002534640053313A2025642E25303264FF
:100ABA00562C2053323A2025642C2053333A2025D1
:100ACA00640D0A00436F6E7461646F7220696E630D
:100ADA0072656D656E7461646F0D0A00436F6E74A2
:100AEA0061646F722064656372656D656E746164BA
:040AFA006F0D0A0072
:00000001FF
