S01600004C616232204469676974616C20322E737265639D
S11300000C9434000C9449000C9449000C9449005D
S11300100C9449000C9449000C9449000C94490038
S11300200C9449000C9449000C9449000C94490028
S11300300C9449000C9449000C9449000C94490018
S11300400C9449000C9449000C9449000C94490008
S11300500C9449000C9449000C9449000C944900F8
S11300600C9449000C94490011241FBECFEFD8E032
S1130070DEBFCDBF11E0A0E0B1E0E6E9F7E002C0E9
S113008005900D92A031B107D9F70E9479010C9423
S1130090C9030C9400008770ECE7F0E09081907F36
S11300A0892B808385E38A95F1F70000EAE7F0E085
S11300B080818064808380917A0086FDFCCF80916A
S11300C0780090917900089580E480937C0087E81B
S11300D080937A0080E00E944B0008958BB1886081
S11300E08BB985E08A95F1F700008BB1877F8BB9D6
S11300F08FE891E00197F1F700C000000895CF93D5
S1130100C82F8BB18B7F8BB98BB18F709C2F907F55
S1130110892B8BB90E946E002BB130E1C39FC001C3
S11301201124922F9F70892B8BB90E946E00C150AD
S1130130C23038F48FE39FE10197F1F700C000006B
S113014006C087EC90E00197F1F700C00000CF9162
S11301500895CF93C82F8BB184608BB98BB18F7006
S11301609C2F907F892B8BB90E946E002BB130E1BC
S1130170C39FC0011124922F9F70892B8BB90E94B9
S11301806E0087EC90E00197F1F700C00000CF917A
S1130190089581E00E947F008FE39FE10197F1F7CA
S11301A000C0000008958AB18C6F8AB92FEF80E7F0
S11301B092E0215080409040E1F700C0000080E3CD
S11301C00E947F008FE19EE40197F1F700C00000D8
S11301D080E30E947F0087E592E00197F1F700C079
S11301E0000080E30E947F0087EC90E00197F1F724
S11301F000C0000088E30E947F0087EC90E0019734
S1130200F1F700C000008CE00E947F0087EC90E0D2
S11302100197F1F700C0000086E00E947F0087ECA0
S113022090E00197F1F700C000000E94C900089512
S1130230611102C0805801C080540E947F0008955B
S1130240CF93DF93EC0103C021960E94A90088811B
S11302508111FACFDF91CF9108950E94A9000895EA
S1130260CF92DF92EF92FF92CF93DF936B017C01E9
S11302700E949F02C62F70E080E090E00E94D002AE
S11302809B01AC01C701B6010E94C00120E030E02F
S113029048EC52E40E945C030E949F02D62F61E066
S11302A080E00E94180180E38C0F0E942D018EE2F1
S11302B00E942D01CDECDC9FC12D1124C695C6955D
S11302C0C69580E38C0F0E942D01CC0F8C2F880FD4
S11302D0880FC80F8D2F8C1B805D0E942D0186E531
S11302E00E942D01DF91CF91FF90EF90DF90CF908E
S11302F008950E9464000E94D30060E080E00E94A0
S1130300180180E091E00E942001C12CD12C7601DB
S113031081E00E944B00BC0180E090E00E94CE028C
S113032020E030E040EA50E40E945C0320E030EC3E
S11303304FE754E40E942D022DEC3CEC4CE45EE3C8
S11303400E945C034B015C012DEC3CEC4CE45FE34C
S1130350C701B6010E945C039B01AC01C501B40155
S11303600E94C1016B017C010E9430012FEF81EEDC
S113037094E0215080409040E1F700C00000C8CFD5
S11303805058BB27AA270E94D8010C9422030E942C
S1130390140338F00E941B0320F039F49F3F19F432
S11303A026F40C9411030EF4E095E7FB0C940B0374
S11303B0E92F0E94330358F3BA17620773078407BF
S11303C0950720F079F4A6F50C9455030EF4E09506
S11303D00B2EBA2FA02D0B01B90190010C01CA01FB
S11303E0A0011124FF27591B99F0593F50F4503EA6
S11303F068F11A16F040A22F232F342F4427585F98
S1130400F3CF469537952795A795F0405395C9F7AF
S11304107EF41F16BA0B620B730B840BBAF0915067
S1130420A1F0FF0FBB1F661F771F881FC2F70EC006
S1130430BA0F621F731F841F48F4879577956795D9
S1130440B795F7959E3F08F0B0CF9395880F08F0C5
S11304509927EE0F9795879508950E9441020C9471
S113046022030E941B0358F00E94140340F029F455
S11304705F3F29F00C940B0351110C9456030C9418
S113048011030E94330368F39923B1F3552391F3C5
S1130490951B550BBB27AA2762177307840738F0EF
S11304A09F5F5F4F220F331F441FAA1FA9F335D04C
S11304B00E2E3AF0E0E832D091505040E695001C00
S11304C0CAF72BD0FE2F29D0660F771F881FBB1FBA
S11304D0261737074807AB07B0E809F0BB0B802D98
S11304E0BF01FF2793585F4F3AF09E3F510578F0C4
S11304F00C940B030C9456035F3FE4F3983ED4F33F
S1130500869577956795B795F7959F5FC9F7880F97
S1130510911D9695879597F90895E1E0660F771FE9
S1130520881FBB1F621773078407BA0720F0621B7A
S1130530730B840BBA0BEE1F88F7E09508950E94A5
S11305403B0388F09F5798F0B92F9927B751B0F023
S1130550E1F0660F771F881F991F1AF0BA95C9F743
S113056014C0B13091F00E945503B1E008950C9489
S11305705503672F782F8827B85F39F0B93FCCF33C
S1130580869577956795B395D9F73EF490958095C0
S1130590709561957F4F8F4F9F4F0895E89409C0E0
S11305A097FB3EF490958095709561957F4F8F4FA2
S11305B09F4F9923A9F0F92F96E9BB279395F695B8
S11305C0879577956795B795F111F8CFFAF4BB0F36
S11305D011F460FF1BC06F5F7F4F8F4F9F4F16C09A
S11305E0882311F096E911C0772321F09EE8872F24
S11305F0762F05C0662371F096E8862F70E060E0E0
S11306002AF09A95660F771F881FDAF7880F969558
S1130610879597F9089597F99F6780E870E060E0FF
S113062008959FEF80EC089500240A941616170687
S113063018060906089500240A94121613061406CF
S113064005060895092E0394000C11F4882352F032
S1130650BB0F40F4BF2B11F460FF04C06F5F7F4FEA
S11306608F4F9F4F089557FD9058440F551F59F0D1
S11306705F3F71F04795880F97FB991F61F09F3F8B
S113068079F087950895121613061406551FF2CFB4
S11306904695F1DF08C0161617061806991FF1CF04
S11306A086957105610508940895E894BB2766272B
S11306B07727CB0197F908950E946F030C942203C6
S11306C00E94140338F00E941B0320F0952311F0BC
S11306D00C940B030C94110311240C9456030E94E4
S11306E0330370F3959FC1F3950F50E0551F629F3C
S11306F0F001729FBB27F00DB11D639FAA27F00D77
S1130700B11DAA1F649F6627B00DA11D661F829F9D
S11307102227B00DA11D621F739FB00DA11D621F82
S1130720839FA00D611D221F749F3327A00D611D9F
S1130730231F849F600D211D822F762F6A2F112481
S11307409F5750409AF0F1F088234AF0EE0FFF1FB4
S1130750BB1F661F771F881F91505040A9F79E3F0B
S1130760510580F00C940B030C9456035F3FE4F3A3
S1130770983ED4F3869577956795B795F795E79561
S11307809F5FC1F7FE2B880F911D9695879597F96A
S10907900895F894FFCF68
S1130796504F5420533120564F4C54414A453A0049
S9030000FC
