S01600004C616232204469676974616C20322E737265639D
S11300000C9434000C9449000C9449000C9449005D
S11300100C9449000C9449000C9449000C94490038
S11300200C9449000C9449000C9449000C94490028
S11300300C9449000C9449000C9449000C94490018
S11300400C9449000C9449000C9449000C94490008
S11300500C9449000C9449000C9449000C944900F8
S11300600C9449000C94490011241FBECFEFD8E032
S1130070DEBFCDBF11E0A0E0B1E0E8E3F3E002C0F1
S113008005900D92A031B107D9F70E9438010C9464
S11300909A010C94000080E480937C0087E88093AC
S11300A07A000895ECE7F0E09081907F8F70892BBF
S11300B08083EAE7F0E080818064808380917A0025
S11300C086FDFCCF809178009091790008958BB1E2
S11300D082608BB900008BB18D7F8BB981E28A95E8
S11300E0F1F7000008959BB19E7F9BB99BB193707B
S11300F08C7F892B8BB90E94670008959BB1916016
S11301009BB99BB193708C7F892B8BB90E9467003C
S1130110089581E00E94730083EF91E00197F1F765
S113012000C0000008958AB18FEF8AB983ED90E38F
S11301300197F1F700C0000080E30E94730081EE94
S113014094E00197F1F700C0000080E30E9473007F
S113015092E39A95F1F780E30E94730088E30E948A
S1130160730080E18A95F1F700C08CE00E9473006F
S113017090E19A95F1F700C086E00E94730080E157
S11301808A95F1F700C00E9489000895611102C0A8
S1130190805801C080540E9473000895CF93DF9368
S11301A0EC0103C021960E947E0088818111FACF60
S11301B0DF91CF9108958F929F92AF92BF92CF9289
S11301C0DF92EF92FF920F931F93CF93DF93EB0194
S11301D09C01A8E8B3E10E948B016B017C012FEF25
S11301E033E040E050E00E94690149015A01C7012F
S11301F0B60128E13CE94FE050E00E946901022F7A
S1130200C501B40128EE33E040E050E00E946901EA
S11302100F2EF4E6CF2ED12CE12CF12CF02DA701DA
S113022096010E946901122FC501B401A70196012C
S11302300E9469012AE030E040E050E00E94690138
S1130240005D08838EE28983105D1A83205D2B8311
S113025086E58C831D82DF91CF911F910F91FF90D2
S1130260EF90DF90CF90BF90AF909F908F900895C4
S1130270CF93DF9300D000D000D0CDB7DEB70E947B
S11302804B000E94930060E080E00E94C60080E082
S113029091E00E94CE0080E00E945200BE016F5F98
S11302A07F4F0E94DB0061E080E00E94C600CE0127
S11302B001960E94CE008CE091E00E94CE002FEFC8
S11302C083EC99E0215080409040E1F700C00000A9
S11302D0E2CFA1E21A2EAA1BBB1BFD010DC0AA1F6F
S11302E0BB1FEE1FFF1FA217B307E407F50720F09B
S11302F0A21BB30BE40BF50B661F771F881F991F16
S11303001A9469F760957095809590959B01AC015E
S1130310BD01CF010895A29FB001B39FC001A39F67
S1130320700D811D1124911DB29F700D811D11242A
S10B0330911D0895F894FFCF1C
S1130338566F6C74616A652053313A00202020009E
S9030000FC
